{
    "contractName": "StrongHands",
    "abi": [
        {
            "inputs": [
                {
                    "internalType": "uint256",
                    "name": "_lockTime",
                    "type": "uint256"
                }
            ],
            "stateMutability": "nonpayable",
            "type": "constructor"
        },
        {
            "inputs": [],
            "name": "LendingPoolProvider",
            "outputs": [
                {
                    "internalType": "contract ILendingPoolProvider",
                    "name": "",
                    "type": "address"
                }
            ],
            "stateMutability": "view",
            "type": "function"
        },
        {
            "inputs": [],
            "name": "WETHGateway",
            "outputs": [
                {
                    "internalType": "contract IWETHGateway",
                    "name": "",
                    "type": "address"
                }
            ],
            "stateMutability": "view",
            "type": "function"
        },
        {
            "inputs": [
                {
                    "internalType": "address",
                    "name": "",
                    "type": "address"
                }
            ],
            "name": "deposits",
            "outputs": [
                {
                    "internalType": "uint256",
                    "name": "timeOfDeposit",
                    "type": "uint256"
                },
                {
                    "internalType": "uint256",
                    "name": "amount",
                    "type": "uint256"
                },
                {
                    "internalType": "uint256",
                    "name": "index",
                    "type": "uint256"
                }
            ],
            "stateMutability": "view",
            "type": "function"
        },
        {
            "inputs": [],
            "name": "profitWithdraw",
            "outputs": [],
            "stateMutability": "nonpayable",
            "type": "function"
        },
        {
            "inputs": [],
            "name": "strongDeposit",
            "outputs": [],
            "stateMutability": "payable",
            "type": "function"
        },
        {
            "inputs": [],
            "name": "strongWithdraw",
            "outputs": [],
            "stateMutability": "nonpayable",
            "type": "function"
        }
    ],
    "bytecode": "6080604052600080546001600160a01b031990811673f8ac10e65f2073460aad5f28e1eabe807dc287cf17909155600180549091167388757f2f99175387ab4c6a4b3067c77a695b034917905534801561005857600080fd5b50604051610abc380380610abc83398101604081905261007791610160565b6006819055600580546001600160a01b0319163317905560015460408051630261bf8b60e01b815290516001600160a01b039290921691630261bf8b91600480820192602092909190829003018186803b1580156100d457600080fd5b505afa1580156100e8573d6000803e3d6000fd5b505050506040513d601f19601f8201168201806040525081019061010c9190610132565b600280546001600160a01b0319166001600160a01b039290921691909117905550610178565b600060208284031215610143578081fd5b81516001600160a01b0381168114610159578182fd5b9392505050565b600060208284031215610171578081fd5b5051919050565b610935806101876000396000f3fe6080604052600436106100555760003560e01c806331173e561461005a57806379c16ba014610097578063a0367eb8146100ae578063dd3d514b146100ce578063e1920268146100e3578063fc7e286d146100eb575b600080fd5b34801561006657600080fd5b5060015461007a906001600160a01b031681565b6040516001600160a01b0390911681526020015b60405180910390f35b3480156100a357600080fd5b506100ac610142565b005b3480156100ba57600080fd5b5060005461007a906001600160a01b031681565b3480156100da57600080fd5b506100ac61055c565b6100ac61071c565b3480156100f757600080fd5b50610127610106366004610832565b60036020526000908152604090208054600182015460029092015490919083565b6040805193845260208401929092529082015260600161008e565b336000908152600360205260409020600101546101c05760405162461bcd60e51b815260206004820152603160248201527f596f7520686176656e2774206465706f736974656420616e79206574686572206044820152703a37903a3434b99031b7b73a3930b1ba1760791b60648201526084015b60405180910390fd5b336000908152600360205260408120546101da90426108b7565b336000908152600360205260408120600101546006549293509183101561023a57600654610209906002610898565b8360065461021791906108b7565b6102219084610898565b61022b9190610878565b905061023781836108b7565b91505b600054600254604051630402806960e51b81526001600160a01b039182166004820152602481018590523360448201529116906380500d2090606401600060405180830381600087803b15801561029057600080fd5b505af11580156102a4573d6000803e3d6000fd5b5050336000908152600360205260408120600101819055600780548694509092506102d09084906108b7565b9091555050600480546102e5906001906108b7565b8154811061030357634e487b7160e01b600052603260045260246000fd5b600091825260208083209091015433835260039091526040909120600201546001600160a01b039091169060049061033d906001906108b7565b8154811061035b57634e487b7160e01b600052603260045260246000fd5b600091825260208083209190910180546001600160a01b0319166001600160a01b039490941693909317909255338152600391829052604081206002015460048054919392916103ad906001906108b7565b815481106103cb57634e487b7160e01b600052603260045260246000fd5b60009182526020808320909101546001600160a01b0316835282810193909352604091820181206002908101949094553381526003909252812090910155600480548061042857634e487b7160e01b600052603160045260246000fd5b600082815260209020810160001990810180546001600160a01b0319169055019055801561055757806000805b6004548110156105535760075484600360006004858154811061048857634e487b7160e01b600052603260045260246000fd5b60009182526020808320909101546001600160a01b031683528201929092526040019020600101546104ba9190610898565b6104c49190610878565b9150828211156104d2578291505b6104dc82846108b7565b925081600360006004848154811061050457634e487b7160e01b600052603260045260246000fd5b60009182526020808320909101546001600160a01b031683528201929092526040018120600101805490919061053b908490610860565b9091555081905061054b816108ce565b915050610455565b5050505b505050565b6005546001600160a01b031633146105e75760405162461bcd60e51b815260206004820152604260248201527f4f6e6c7920746865206f776e6572206f6620746865205374726f6e6748616e6460448201527f20636f6e74726163742063616e207769746864726177207468652070726f6669606482015261742160f01b608482015260a4016101b7565b600054600254604051630402806960e51b81526001600160a01b03918216600482015260001960248201523060448201529116906380500d2090606401600060405180830381600087803b15801561063e57600080fd5b505af1158015610652573d6000803e3d6000fd5b50506005546007546001600160a01b0390911692506108fc915061067690476108b7565b6040518115909202916000818181858888f1935050505015801561069e573d6000803e3d6000fd5b506000805460075460025460055460405163474cf53d60e01b81526001600160a01b039283166004820152908216602482015260448101949094529091169163474cf53d91906064015b6000604051808303818588803b15801561070157600080fd5b505af1158015610715573d6000803e3d6000fd5b5050505050565b336000908152600360205260408120600101805434929061073e908490610860565b909155505033600090815260036020526040812042905560078054349290610767908490610860565b9091555050336000908152600360205260409020600201546107e957600454610791906001610860565b336000818152600360205260408120600201929092556004805460018101825592527f8a35acfbc15ff81a39ae7d344fd709f28e8600b4aa8c65c6b64bfe7fe36bd19b90910180546001600160a01b03191690911790555b6000805460025460055460405163474cf53d60e01b81526001600160a01b03928316600482015290821660248201526044810193909352169063474cf53d9034906064016106e8565b600060208284031215610843578081fd5b81356001600160a01b0381168114610859578182fd5b9392505050565b60008219821115610873576108736108e9565b500190565b60008261089357634e487b7160e01b81526012600452602481fd5b500490565b60008160001904831182151516156108b2576108b26108e9565b500290565b6000828210156108c9576108c96108e9565b500390565b60006000198214156108e2576108e26108e9565b5060010190565b634e487b7160e01b600052601160045260246000fdfea2646970667358221220af12ccbf1ede68724e48e1b6e6f54f9fcd184dfaa40caf0896aa5031a85d17ef64736f6c63430008030033",
    "sourcePath": "c:/Users/tn170369d/Desktop/strong_hands_truffle/contracts/StrongHands.sol",
    "compiler": {
        "name": "solc",
        "version": "0.8.3+commit.8d00100c"
    },
    "functionHashes": {
        "LendingPoolProvider()": "31173e56",
        "WETHGateway()": "a0367eb8",
        "deposits(address)": "fc7e286d",
        "profitWithdraw()": "dd3d514b",
        "strongDeposit()": "e1920268",
        "strongWithdraw()": "79c16ba0"
    },
    "gasEstimates": {
        "creation": {
            "codeDepositCost": "471400",
            "executionCost": "infinite",
            "totalCost": "infinite"
        },
        "external": {
            "LendingPoolProvider()": "1004",
            "WETHGateway()": "1048",
            "deposits(address)": "2947",
            "profitWithdraw()": "infinite",
            "strongDeposit()": "infinite",
            "strongWithdraw()": "infinite"
        }
    }
}