{
  "contractName": "StrongHands",
  "abi": [
    {
      "inputs": [
        {
          "internalType": "uint256",
          "name": "_lockTime",
          "type": "uint256"
        }
      ],
      "stateMutability": "nonpayable",
      "type": "constructor"
    },
    {
      "inputs": [],
      "name": "LendingPoolProvider",
      "outputs": [
        {
          "internalType": "contract ILendingPoolProvider",
          "name": "",
          "type": "address"
        }
      ],
      "stateMutability": "view",
      "type": "function",
      "constant": true
    },
    {
      "inputs": [],
      "name": "WETHGateway",
      "outputs": [
        {
          "internalType": "contract IWETHGateway",
          "name": "",
          "type": "address"
        }
      ],
      "stateMutability": "view",
      "type": "function",
      "constant": true
    },
    {
      "inputs": [
        {
          "internalType": "address",
          "name": "",
          "type": "address"
        }
      ],
      "name": "deposits",
      "outputs": [
        {
          "internalType": "uint256",
          "name": "timeOfDeposit",
          "type": "uint256"
        },
        {
          "internalType": "uint256",
          "name": "amount",
          "type": "uint256"
        },
        {
          "internalType": "uint256",
          "name": "index",
          "type": "uint256"
        }
      ],
      "stateMutability": "view",
      "type": "function",
      "constant": true
    },
    {
      "inputs": [],
      "name": "strongDeposit",
      "outputs": [],
      "stateMutability": "payable",
      "type": "function",
      "payable": true
    },
    {
      "inputs": [],
      "name": "strongWithdraw",
      "outputs": [],
      "stateMutability": "nonpayable",
      "type": "function"
    },
    {
      "inputs": [],
      "name": "profitWithdraw",
      "outputs": [],
      "stateMutability": "nonpayable",
      "type": "function"
    }
  ],
  "bytecode": "0x608060405273f8ac10e65f2073460aad5f28e1eabe807dc287cf6000806101000a81548173ffffffffffffffffffffffffffffffffffffffff021916908373ffffffffffffffffffffffffffffffffffffffff1602179055507388757f2f99175387ab4c6a4b3067c77a695b0349600160006101000a81548173ffffffffffffffffffffffffffffffffffffffff021916908373ffffffffffffffffffffffffffffffffffffffff16021790555073e0fba4fc209b4948668006b2be61711b7f465bae600260006101000a81548173ffffffffffffffffffffffffffffffffffffffff021916908373ffffffffffffffffffffffffffffffffffffffff16021790555034801561010e57600080fd5b506040516200158c3803806200158c83398181016040528101906101329190610195565b8060068190555033600560006101000a81548173ffffffffffffffffffffffffffffffffffffffff021916908373ffffffffffffffffffffffffffffffffffffffff160217905550506101df565b60008151905061018f816101c8565b92915050565b6000602082840312156101a757600080fd5b60006101b584828501610180565b91505092915050565b6000819050919050565b6101d1816101be565b81146101dc57600080fd5b50565b61139d80620001ef6000396000f3fe6080604052600436106100555760003560e01c806331173e561461005a57806379c16ba014610085578063a0367eb81461009c578063dd3d514b146100c7578063e1920268146100de578063fc7e286d146100e8575b600080fd5b34801561006657600080fd5b5061006f610127565b60405161007c9190610f6e565b60405180910390f35b34801561009157600080fd5b5061009a61014d565b005b3480156100a857600080fd5b506100b161089c565b6040516100be9190610f89565b60405180910390f35b3480156100d357600080fd5b506100dc6108c0565b005b6100e6610b70565b005b3480156100f457600080fd5b5061010f600480360381019061010a9190610e46565b610e07565b60405161011e93929190610fe4565b60405180910390f35b600160009054906101000a900473ffffffffffffffffffffffffffffffffffffffff1681565b6000600360003373ffffffffffffffffffffffffffffffffffffffff1673ffffffffffffffffffffffffffffffffffffffff16815260200190815260200160002060010154116101d2576040517f08c379a00000000000000000000000000000000000000000000000000000000081526004016101c990610fc4565b60405180910390fd5b6000600360003373ffffffffffffffffffffffffffffffffffffffff1673ffffffffffffffffffffffffffffffffffffffff1681526020019081526020016000206000015442610222919061110d565b90506000600360003373ffffffffffffffffffffffffffffffffffffffff1673ffffffffffffffffffffffffffffffffffffffff16815260200190815260200160002060010154905060006006548310156102ba57600260065461028691906110b3565b83600654610294919061110d565b8361029f91906110b3565b6102a99190611082565b905080826102b7919061110d565b91505b60008054906101000a900473ffffffffffffffffffffffffffffffffffffffff1673ffffffffffffffffffffffffffffffffffffffff166380500d20600260009054906101000a900473ffffffffffffffffffffffffffffffffffffffff1684336040518463ffffffff1660e01b815260040161033993929190610f37565b600060405180830381600087803b15801561035357600080fd5b505af1158015610367573d6000803e3d6000fd5b505050506000600360003373ffffffffffffffffffffffffffffffffffffffff1673ffffffffffffffffffffffffffffffffffffffff1681526020019081526020016000206001018190555081600760008282546103c5919061110d565b92505081905550600460016004805490506103e0919061110d565b81548110610417577f4e487b7100000000000000000000000000000000000000000000000000000000600052603260045260246000fd5b9060005260206000200160009054906101000a900473ffffffffffffffffffffffffffffffffffffffff1660046001600360003373ffffffffffffffffffffffffffffffffffffffff1673ffffffffffffffffffffffffffffffffffffffff16815260200190815260200160002060020154610493919061110d565b815481106104ca577f4e487b7100000000000000000000000000000000000000000000000000000000600052603260045260246000fd5b9060005260206000200160006101000a81548173ffffffffffffffffffffffffffffffffffffffff021916908373ffffffffffffffffffffffffffffffffffffffff160217905550600360003373ffffffffffffffffffffffffffffffffffffffff1673ffffffffffffffffffffffffffffffffffffffff16815260200190815260200160002060020154600360006004600160048054905061056d919061110d565b815481106105a4577f4e487b7100000000000000000000000000000000000000000000000000000000600052603260045260246000fd5b9060005260206000200160009054906101000a900473ffffffffffffffffffffffffffffffffffffffff1673ffffffffffffffffffffffffffffffffffffffff1673ffffffffffffffffffffffffffffffffffffffff168152602001908152602001600020600201819055506000600360003373ffffffffffffffffffffffffffffffffffffffff1673ffffffffffffffffffffffffffffffffffffffff168152602001908152602001600020600201819055506004805480610690577f4e487b7100000000000000000000000000000000000000000000000000000000600052603160045260246000fd5b6001900381819060005260206000200160006101000a81549073ffffffffffffffffffffffffffffffffffffffff021916905590556000811115610897576000819050600080600090505b6004805490508110156108935760075484600360006004858154811061072a577f4e487b7100000000000000000000000000000000000000000000000000000000600052603260045260246000fd5b9060005260206000200160009054906101000a900473ffffffffffffffffffffffffffffffffffffffff1673ffffffffffffffffffffffffffffffffffffffff1673ffffffffffffffffffffffffffffffffffffffff1681526020019081526020016000206001015461079d91906110b3565b6107a79190611082565b9150828211156107b5578291505b81836107c1919061110d565b9250816003600060048481548110610802577f4e487b7100000000000000000000000000000000000000000000000000000000600052603260045260246000fd5b9060005260206000200160009054906101000a900473ffffffffffffffffffffffffffffffffffffffff1673ffffffffffffffffffffffffffffffffffffffff1673ffffffffffffffffffffffffffffffffffffffff1681526020019081526020016000206001016000828254610879919061102c565b92505081905550808061088b906111e5565b9150506106db565b5050505b505050565b60008054906101000a900473ffffffffffffffffffffffffffffffffffffffff1681565b600560009054906101000a900473ffffffffffffffffffffffffffffffffffffffff1673ffffffffffffffffffffffffffffffffffffffff163373ffffffffffffffffffffffffffffffffffffffff1614610950576040517f08c379a000000000000000000000000000000000000000000000000000000000815260040161094790610fa4565b60405180910390fd5b60008054906101000a900473ffffffffffffffffffffffffffffffffffffffff1673ffffffffffffffffffffffffffffffffffffffff166380500d20600260009054906101000a900473ffffffffffffffffffffffffffffffffffffffff167fffffffffffffffffffffffffffffffffffffffffffffffffffffffffffffffff306040518463ffffffff1660e01b81526004016109ef93929190610f37565b600060405180830381600087803b158015610a0957600080fd5b505af1158015610a1d573d6000803e3d6000fd5b50505050600560009054906101000a900473ffffffffffffffffffffffffffffffffffffffff1673ffffffffffffffffffffffffffffffffffffffff166108fc60075447610a6b919061110d565b9081150290604051600060405180830381858888f19350505050158015610a96573d6000803e3d6000fd5b5060008054906101000a900473ffffffffffffffffffffffffffffffffffffffff1673ffffffffffffffffffffffffffffffffffffffff1663474cf53d600754600260009054906101000a900473ffffffffffffffffffffffffffffffffffffffff16600560009054906101000a900473ffffffffffffffffffffffffffffffffffffffff1660006040518563ffffffff1660e01b8152600401610b3c93929190610f00565b6000604051808303818588803b158015610b5557600080fd5b505af1158015610b69573d6000803e3d6000fd5b5050505050565b34600360003373ffffffffffffffffffffffffffffffffffffffff1673ffffffffffffffffffffffffffffffffffffffff1681526020019081526020016000206001016000828254610bc2919061102c565b9250508190555042600360003373ffffffffffffffffffffffffffffffffffffffff1673ffffffffffffffffffffffffffffffffffffffff168152602001908152602001600020600001819055503460076000828254610c22919061102c565b925050819055506000600360003373ffffffffffffffffffffffffffffffffffffffff1673ffffffffffffffffffffffffffffffffffffffff168152602001908152602001600020600201541415610d30576001600480549050610c86919061102c565b600360003373ffffffffffffffffffffffffffffffffffffffff1673ffffffffffffffffffffffffffffffffffffffff168152602001908152602001600020600201819055506004339080600181540180825580915050600190039060005260206000200160009091909190916101000a81548173ffffffffffffffffffffffffffffffffffffffff021916908373ffffffffffffffffffffffffffffffffffffffff1602179055505b60008054906101000a900473ffffffffffffffffffffffffffffffffffffffff1673ffffffffffffffffffffffffffffffffffffffff1663474cf53d34600260009054906101000a900473ffffffffffffffffffffffffffffffffffffffff16600560009054906101000a900473ffffffffffffffffffffffffffffffffffffffff1660006040518563ffffffff1660e01b8152600401610dd393929190610f00565b6000604051808303818588803b158015610dec57600080fd5b505af1158015610e00573d6000803e3d6000fd5b5050505050565b60036020528060005260406000206000915090508060000154908060010154908060020154905083565b600081359050610e4081611350565b92915050565b600060208284031215610e5857600080fd5b6000610e6684828501610e31565b91505092915050565b610e7881611141565b82525050565b610e878161118b565b82525050565b610e96816111af565b82525050565b610ea5816111d3565b82525050565b6000610eb860428361101b565b9150610ec38261128c565b606082019050919050565b6000610edb60318361101b565b9150610ee682611301565b604082019050919050565b610efa81611181565b82525050565b6000606082019050610f156000830186610e6f565b610f226020830185610e6f565b610f2f6040830184610e9c565b949350505050565b6000606082019050610f4c6000830186610e6f565b610f596020830185610ef1565b610f666040830184610e6f565b949350505050565b6000602082019050610f836000830184610e7e565b92915050565b6000602082019050610f9e6000830184610e8d565b92915050565b60006020820190508181036000830152610fbd81610eab565b9050919050565b60006020820190508181036000830152610fdd81610ece565b9050919050565b6000606082019050610ff96000830186610ef1565b6110066020830185610ef1565b6110136040830184610ef1565b949350505050565b600082825260208201905092915050565b600061103782611181565b915061104283611181565b9250827fffffffffffffffffffffffffffffffffffffffffffffffffffffffffffffffff038211156110775761107661122e565b5b828201905092915050565b600061108d82611181565b915061109883611181565b9250826110a8576110a761125d565b5b828204905092915050565b60006110be82611181565b91506110c983611181565b9250817fffffffffffffffffffffffffffffffffffffffffffffffffffffffffffffffff04831182151516156111025761110161122e565b5b828202905092915050565b600061111882611181565b915061112383611181565b9250828210156111365761113561122e565b5b828203905092915050565b600061114c82611161565b9050919050565b600061ffff82169050919050565b600073ffffffffffffffffffffffffffffffffffffffff82169050919050565b6000819050919050565b60006111968261119d565b9050919050565b60006111a882611161565b9050919050565b60006111ba826111c1565b9050919050565b60006111cc82611161565b9050919050565b60006111de82611153565b9050919050565b60006111f082611181565b91507fffffffffffffffffffffffffffffffffffffffffffffffffffffffffffffffff8214156112235761122261122e565b5b600182019050919050565b7f4e487b7100000000000000000000000000000000000000000000000000000000600052601160045260246000fd5b7f4e487b7100000000000000000000000000000000000000000000000000000000600052601260045260246000fd5b7f4f6e6c7920746865206f776e6572206f6620746865205374726f6e6748616e6460008201527f20636f6e74726163742063616e207769746864726177207468652070726f666960208201527f7421000000000000000000000000000000000000000000000000000000000000604082015250565b7f596f7520686176656e2774206465706f736974656420616e792065746865722060008201527f746f207468697320636f6e74726163742e000000000000000000000000000000602082015250565b61135981611141565b811461136457600080fd5b5056fea264697066735822122073e32295d88871c6d53ce85d50fc29a1676fec385f687150e848b3e95716bddc64736f6c63430008030033",
  "immutableReferences": {},
  "source": "//SPDX-License-Identifier: Unlicense\npragma solidity >=0.5.0 <0.9.0;\n\n\nimport {IWETHGateway, ILendingPoolProvider} from \"./Interfaces.sol\";\n\n\n\n/// @title Strong hands.\ncontract StrongHands {\n\n  // WETHGateway contract\n  IWETHGateway public WETHGateway = IWETHGateway(0xf8aC10E65F2073460aAD5f28E1EABE807DC287CF);\n\n  // LendingPoolProvider contract address\n  ILendingPoolProvider public LendingPoolProvider = ILendingPoolProvider(0x88757f2f99175387aB4C6a4b3067c77A695b0349);\n\n  // address of lending pool for aave\n  address LendingPool = address(0xE0fBa4Fc209b4948668006B2bE61711b7f465bAe);\n\n  /*\n  *  struct for keeping track of deposited \n  *  ether and time of deposit for each\n  *  external account\n  */\n  struct Deposit\n  {\n    uint timeOfDeposit;\n    uint amount;\n    uint index;\n  }\n\n  // mapping of all deposits\n  mapping (address => Deposit) public deposits;\n\n  /*\n  * dynamic array of depositor addresses\n  * needed for sharing ether of\n  * pre-mature withdrawals\n  */\n  address[] depositors;\n\n  // address of the contract creator\n  address contractOwner;\n\n  /* \n  * time to wait before the\n  * account can withdraw 100%\n  * of his initial deposit\n  */\n  uint lockTime;\n\n  // keeping track of the total\n  // deposited amount to the contract\n  uint totalDeposit;\n\n\n  modifier ownerOnly() { require(msg.sender == contractOwner, \"Only the owner of the StrongHand contract can withdraw the profit!\"); _;}\n\n  // create StrongHands contract with given lock time\n  constructor(uint _lockTime) \n  {\n    lockTime = _lockTime;\n    contractOwner = msg.sender;\n\n    /* \n    * this could be at every transaction\n    * to guarantee lending pool address\n    * is always up to date\n    */\n    //this didnt work\n    //LendingPool = LendingPoolProvider.getLendingPool();\n\n    //totalDeposit = 0;\n  }\n\n  /**\n  * Deposit ether to the contract, locking \n  * it for a period of time with a penalty \n  * to withdrawal before it expires.\n  */ \n  function strongDeposit() \n  external \n  payable\n  {\n    deposits[msg.sender].amount += msg.value;\n    deposits[msg.sender].timeOfDeposit = block.timestamp;\n    totalDeposit += msg.value;\n    if (deposits[msg.sender].index == 0)\n    {\n      // actual index + 1, so 0 is non-valid\n      deposits[msg.sender].index = depositors.length + 1;\n      depositors.push(msg.sender);   \n    }\n\n    //deposit to aave\n    WETHGateway.depositETH{value: msg.value}(LendingPool, contractOwner, 0);\n  }\n\n  /**\n  * Withdraw ether with a penalty of up to 50%\n  * depending on how long the ether\n  * was locked\n  */ \n  function strongWithdraw() \n  external\n  {\n    require(deposits[msg.sender].amount > 0, \"You haven't deposited any ether to this contract.\");\n    uint timePassed = block.timestamp - deposits[msg.sender].timeOfDeposit;\n    uint withdrawAmount = deposits[msg.sender].amount;\n    uint shareAmount = 0;\n    if (timePassed <  lockTime)\n    {\n      //I'm not sure how this works without floating points \n      shareAmount = (withdrawAmount * (lockTime - timePassed)) / (lockTime * 2);\n      withdrawAmount -= shareAmount;\n      //sharing of remaining tokens\n    }\n    \n    //withdraw from aave\n    WETHGateway.withdrawETH(LendingPool, withdrawAmount, msg.sender);\n\n    deposits[msg.sender].amount = 0;\n    //maybe this should go after the sharing\n    totalDeposit -= withdrawAmount;\n    \n    /* \n    * set last to withdrawer, remove him from depositors\n    * change index of deposits to their respective depositors\n    * after swap\n    */\n    depositors[deposits[msg.sender].index - 1] = depositors[depositors.length - 1];\n    deposits[depositors[depositors.length - 1]].index = deposits[msg.sender].index;\n    deposits[msg.sender].index = 0;\n    depositors.pop(); \n\n    // iterate through others to share\n    if(shareAmount > 0)\n    {\n      uint remainingAmount = shareAmount;\n      uint addAmount;\n      for (uint i = 0; i < depositors.length; i++)\n      {\n        addAmount = (deposits[depositors[i]].amount * shareAmount) / totalDeposit;\n        if( addAmount > remainingAmount ) addAmount = remainingAmount;\n        remainingAmount -= addAmount;\n        deposits[depositors[i]].amount += addAmount;\n      }\n      // if any is left because of integer division\n      // it will stay in the lendingpool\n      // and be reaped with the profit\n    }\n\n  }\n\n\n  function profitWithdraw() \n  external \n  ownerOnly\n  {\n    // take everything\n    WETHGateway.withdrawETH(LendingPool, type(uint).max, address(this));\n    // transfer profit\n    payable(contractOwner).transfer( address(this).balance - totalDeposit);\n    //put back rest into lendingpool\n    WETHGateway.depositETH{value: totalDeposit}(LendingPool, contractOwner, 0);\n    //i have no idea if this is how it works\n  }\n\n}\n",
  "sourcePath": "C:/Users/tn170369d/Desktop/strong_hands_truffle/contracts/StrongHands.sol",
  "compiler": {
    "name": "solc",
    "version": "0.8.3+commit.8d00100c.Emscripten.clang"
  },
  "schemaVersion": "3.3.4",
  "updatedAt": "2021-03-30T13:29:32.408Z",
  "networkType": "ethereum",
  "devdoc": {
    "kind": "dev",
    "methods": {},
    "title": "Strong hands.",
    "version": 1
  },
  "userdoc": {
    "kind": "user",
    "methods": {
      "strongDeposit()": {
        "notice": "Deposit ether to the contract, locking  it for a period of time with a penalty  to withdrawal before it expires."
      },
      "strongWithdraw()": {
        "notice": "Withdraw ether with a penalty of up to 50% depending on how long the ether was locked"
      }
    },
    "version": 1
  }
}